{
  "_format": "hh-sol-artifact-1",
  "contractName": "Escrow",
  "sourceName": "contracts/escrow/Escrow.sol",
  "abi": [
    {
      "anonymous": false,
      "inputs": [
        {
          "indexed": true,
          "internalType": "address",
          "name": "payer",
          "type": "address"
        },
        {
          "indexed": true,
          "internalType": "address",
          "name": "payee",
          "type": "address"
        },
        {
          "indexed": false,
          "internalType": "uint256",
          "name": "maxLockedAmount",
          "type": "uint256"
        },
        {
          "indexed": false,
          "internalType": "uint256",
          "name": "maxLockSeconds",
          "type": "uint256"
        },
        {
          "indexed": false,
          "internalType": "uint256",
          "name": "maxLockCounts",
          "type": "uint256"
        }
      ],
      "name": "Auth",
      "type": "event"
    },
    {
      "anonymous": false,
      "inputs": [
        {
          "indexed": true,
          "internalType": "address",
          "name": "payee",
          "type": "address"
        },
        {
          "indexed": false,
          "internalType": "uint256",
          "name": "jobId",
          "type": "uint256"
        },
        {
          "indexed": false,
          "internalType": "address",
          "name": "token",
          "type": "address"
        },
        {
          "indexed": true,
          "internalType": "address",
          "name": "payer",
          "type": "address"
        },
        {
          "indexed": false,
          "internalType": "uint256",
          "name": "amount",
          "type": "uint256"
        }
      ],
      "name": "Canceled",
      "type": "event"
    },
    {
      "anonymous": false,
      "inputs": [
        {
          "indexed": true,
          "internalType": "address",
          "name": "payee",
          "type": "address"
        },
        {
          "indexed": false,
          "internalType": "uint256",
          "name": "jobId",
          "type": "uint256"
        },
        {
          "indexed": false,
          "internalType": "address",
          "name": "token",
          "type": "address"
        },
        {
          "indexed": true,
          "internalType": "address",
          "name": "payer",
          "type": "address"
        },
        {
          "indexed": false,
          "internalType": "uint256",
          "name": "amount",
          "type": "uint256"
        },
        {
          "indexed": false,
          "internalType": "bytes",
          "name": "proof",
          "type": "bytes"
        }
      ],
      "name": "Claimed",
      "type": "event"
    },
    {
      "anonymous": false,
      "inputs": [
        {
          "indexed": true,
          "internalType": "address",
          "name": "payer",
          "type": "address"
        },
        {
          "indexed": false,
          "internalType": "address",
          "name": "token",
          "type": "address"
        },
        {
          "indexed": false,
          "internalType": "uint256",
          "name": "amount",
          "type": "uint256"
        }
      ],
      "name": "Deposit",
      "type": "event"
    },
    {
      "anonymous": false,
      "inputs": [
        {
          "indexed": false,
          "internalType": "address",
          "name": "payer",
          "type": "address"
        },
        {
          "indexed": false,
          "internalType": "address",
          "name": "payee",
          "type": "address"
        },
        {
          "indexed": false,
          "internalType": "uint256",
          "name": "jobId",
          "type": "uint256"
        },
        {
          "indexed": false,
          "internalType": "uint256",
          "name": "amount",
          "type": "uint256"
        },
        {
          "indexed": false,
          "internalType": "uint256",
          "name": "expiry",
          "type": "uint256"
        },
        {
          "indexed": false,
          "internalType": "address",
          "name": "token",
          "type": "address"
        }
      ],
      "name": "Lock",
      "type": "event"
    },
    {
      "anonymous": false,
      "inputs": [
        {
          "indexed": true,
          "internalType": "address",
          "name": "payer",
          "type": "address"
        },
        {
          "indexed": false,
          "internalType": "address",
          "name": "token",
          "type": "address"
        },
        {
          "indexed": false,
          "internalType": "uint256",
          "name": "amount",
          "type": "uint256"
        }
      ],
      "name": "Withdraw",
      "type": "event"
    },
    {
      "inputs": [
        {
          "internalType": "address",
          "name": "token",
          "type": "address"
        },
        {
          "internalType": "address",
          "name": "payee",
          "type": "address"
        },
        {
          "internalType": "uint256",
          "name": "maxLockedAmount",
          "type": "uint256"
        },
        {
          "internalType": "uint256",
          "name": "maxLockSeconds",
          "type": "uint256"
        },
        {
          "internalType": "uint256",
          "name": "maxLockCounts",
          "type": "uint256"
        }
      ],
      "name": "authorize",
      "outputs": [],
      "stateMutability": "nonpayable",
      "type": "function"
    },
    {
      "inputs": [
        {
          "internalType": "uint256",
          "name": "jobId",
          "type": "uint256"
        },
        {
          "internalType": "address",
          "name": "token",
          "type": "address"
        },
        {
          "internalType": "address",
          "name": "payer",
          "type": "address"
        },
        {
          "internalType": "address",
          "name": "payee",
          "type": "address"
        }
      ],
      "name": "cancelExpiredLocks",
      "outputs": [],
      "stateMutability": "nonpayable",
      "type": "function"
    },
    {
      "inputs": [
        {
          "internalType": "uint256",
          "name": "jobId",
          "type": "uint256"
        },
        {
          "internalType": "address",
          "name": "token",
          "type": "address"
        },
        {
          "internalType": "address",
          "name": "payer",
          "type": "address"
        },
        {
          "internalType": "uint256",
          "name": "amount",
          "type": "uint256"
        },
        {
          "internalType": "bytes",
          "name": "proof",
          "type": "bytes"
        }
      ],
      "name": "claimLock",
      "outputs": [],
      "stateMutability": "nonpayable",
      "type": "function"
    },
    {
      "inputs": [
        {
          "internalType": "uint256",
          "name": "jobId",
          "type": "uint256"
        },
        {
          "internalType": "address",
          "name": "token",
          "type": "address"
        },
        {
          "internalType": "address",
          "name": "payer",
          "type": "address"
        },
        {
          "internalType": "uint256",
          "name": "amount",
          "type": "uint256"
        },
        {
          "internalType": "uint256",
          "name": "expiry",
          "type": "uint256"
        }
      ],
      "name": "createLock",
      "outputs": [],
      "stateMutability": "nonpayable",
      "type": "function"
    },
    {
      "inputs": [
        {
          "internalType": "address",
          "name": "token",
          "type": "address"
        },
        {
          "internalType": "uint256",
          "name": "amount",
          "type": "uint256"
        }
      ],
      "name": "deposit",
      "outputs": [],
      "stateMutability": "nonpayable",
      "type": "function"
    },
    {
      "inputs": [
        {
          "internalType": "address",
          "name": "token",
          "type": "address"
        },
        {
          "internalType": "address",
          "name": "payer",
          "type": "address"
        },
        {
          "internalType": "address",
          "name": "payee",
          "type": "address"
        }
      ],
      "name": "getAuthorizations",
      "outputs": [
        {
          "components": [
            {
              "internalType": "address",
              "name": "payee",
              "type": "address"
            },
            {
              "internalType": "uint256",
              "name": "maxLockedAmount",
              "type": "uint256"
            },
            {
              "internalType": "uint256",
              "name": "currentLockedAmount",
              "type": "uint256"
            },
            {
              "internalType": "uint256",
              "name": "maxLockSeconds",
              "type": "uint256"
            },
            {
              "internalType": "uint256",
              "name": "maxLockCounts",
              "type": "uint256"
            },
            {
              "internalType": "uint256",
              "name": "currentLocks",
              "type": "uint256"
            }
          ],
          "internalType": "struct Escrow.auth[]",
          "name": "",
          "type": "tuple[]"
        }
      ],
      "stateMutability": "view",
      "type": "function"
    },
    {
      "inputs": [
        {
          "internalType": "address",
          "name": "token",
          "type": "address"
        }
      ],
      "name": "getFunds",
      "outputs": [
        {
          "components": [
            {
              "internalType": "uint256",
              "name": "available",
              "type": "uint256"
            },
            {
              "internalType": "uint256",
              "name": "locked",
              "type": "uint256"
            }
          ],
          "internalType": "struct Escrow.userFunds",
          "name": "",
          "type": "tuple"
        }
      ],
      "stateMutability": "view",
      "type": "function"
    },
    {
      "inputs": [
        {
          "internalType": "address",
          "name": "token",
          "type": "address"
        },
        {
          "internalType": "address",
          "name": "payer",
          "type": "address"
        },
        {
          "internalType": "address",
          "name": "payee",
          "type": "address"
        }
      ],
      "name": "getLocks",
      "outputs": [
        {
          "components": [
            {
              "internalType": "uint256",
              "name": "jobId",
              "type": "uint256"
            },
            {
              "internalType": "address",
              "name": "payer",
              "type": "address"
            },
            {
              "internalType": "address",
              "name": "payee",
              "type": "address"
            },
            {
              "internalType": "uint256",
              "name": "amount",
              "type": "uint256"
            },
            {
              "internalType": "uint256",
              "name": "expiry",
              "type": "uint256"
            },
            {
              "internalType": "address",
              "name": "token",
              "type": "address"
            }
          ],
          "internalType": "struct Escrow.lock[]",
          "name": "",
          "type": "tuple[]"
        }
      ],
      "stateMutability": "view",
      "type": "function"
    },
    {
      "inputs": [
        {
          "internalType": "address",
          "name": "payer",
          "type": "address"
        },
        {
          "internalType": "address",
          "name": "token",
          "type": "address"
        }
      ],
      "name": "getUserFunds",
      "outputs": [
        {
          "components": [
            {
              "internalType": "uint256",
              "name": "available",
              "type": "uint256"
            },
            {
              "internalType": "uint256",
              "name": "locked",
              "type": "uint256"
            }
          ],
          "internalType": "struct Escrow.userFunds",
          "name": "",
          "type": "tuple"
        }
      ],
      "stateMutability": "view",
      "type": "function"
    },
    {
      "inputs": [
        {
          "internalType": "address",
          "name": "token",
          "type": "address"
        },
        {
          "internalType": "uint256",
          "name": "amount",
          "type": "uint256"
        }
      ],
      "name": "withdraw",
      "outputs": [],
      "stateMutability": "nonpayable",
      "type": "function"
    }
  ],
  "bytecode": "0x608060405234801561001057600080fd5b506001600055612f9d806100256000396000f3fe608060405234801561001057600080fd5b506004361061009e5760003560e01c8063842d2c2011610066578063842d2c201461017b5780638a3daf921461018e578063dc697a5a146101a1578063decebbce146101c1578063f3fef3a31461022057600080fd5b806315fac1cc146100a35780633a8ae44f146100b857806347e7ef241461013557806357d92e45146101485780637d3d23361461015b575b600080fd5b6100b66100b13660046129fb565b610233565b005b6101156100c6366004612a48565b604080518082018252600080825260209182018190526001600160a01b039485168152600180835283822094909516815292815291819020815180830190925280548252909201549082015290565b604080518251815260209283015192810192909252015b60405180910390f35b6100b6610143366004612a7b565b610533565b6100b6610156366004612abb565b61061f565b61016e610169366004612ba1565b610c78565b60405161012c9190612be4565b6100b6610189366004612c6a565b610fc9565b6100b661019c366004612cb8565b61177f565b6101b46101af366004612ba1565b61212e565b60405161012c9190612d05565b6101156101cf366004612d79565b6040805180820190915260008082526020820152503360009081526001602081815260408084206001600160a01b039590951684529381529183902083518085019094528054845201549082015290565b6100b661022e366004612a7b565b61241e565b6001600160a01b0385166102625760405162461bcd60e51b815260040161025990612d94565b60405180910390fd5b6001600160a01b0384166102a85760405162461bcd60e51b815260206004820152600d60248201526c496e76616c696420706179656560981b6044820152606401610259565b3360009081526002602090815260408083206001600160a01b03891684529091528120545b80821015610429573360009081526002602090815260408083206001600160a01b038b8116855292529091208054918816918490811061030f5761030f612dbb565b60009182526020909120600690910201546001600160a01b03161415610417573360009081526002602090815260408083206001600160a01b038b168452909152902080548691908490811061036757610367612dbb565b60009182526020808320600160069093020191909101929092553381526002825260408082206001600160a01b038b168352909252208054859190849081106103b2576103b2612dbb565b60009182526020808320600360069093020191909101929092553381526002825260408082206001600160a01b038b168352909252208054849190849081106103fd576103fd612dbb565b906000526020600020906006020160040181905550610429565b8161042181612de7565b9250506102cd565b808214156104dc573360009081526002602081815260408084206001600160a01b038c81168652908352818520825160c0810184528c831681528085018c8152938101878152606082018c8152608083018c815260a084018a8152855460018082018855968c5298909a209351600690980290930180546001600160a01b031916979095169690961784559351918301919091559151938101939093559051600383015551600482015590516005909101555b60408051868152602081018690529081018490526001600160a01b0387169033907f118cb6c6a02e26bfdb39cab8d70573499942c4ee3f0d7616d3c4100fe9163d9d9060600160405180910390a350505050505050565b61053b612529565b6001600160a01b0382166105895760405162461bcd60e51b8152602060048201526015602482015274496e76616c696420746f6b656e206164647265737360581b6044820152606401610259565b3360009081526001602090815260408083206001600160a01b0386168452909152812080548392906105bc908490612e02565b9091555050604080516001600160a01b03841681526020810183905233917f5548c837ab068cf56a2c2479df0882a4922fd203edb7517321831d95078c5f62910160405180910390a261061182333084612583565b61061b6001600055565b5050565b610627612529565b6001600160a01b03831661064d5760405162461bcd60e51b815260040161025990612e1a565b6001600160a01b0384166106735760405162461bcd60e51b815260040161025990612d94565b600085116106b35760405162461bcd60e51b815260206004820152600d60248201526c125b9d985b1a59081a9bd89259609a1b6044820152606401610259565b6040805160c081018252600080825260208201819052918101829052606081018290526080810182905260a081018290526003549091905b80821015610828576003828154811061070657610706612dbb565b60009182526020909120600690910201600201546001600160a01b03163314801561076257506003828154811061073f5761073f612dbb565b60009182526020909120600160069092020101546001600160a01b038781169116145b801561079157506003828154811061077c5761077c612dbb565b90600052602060002090600602016000015488145b1561081657600382815481106107a9576107a9612dbb565b60009182526020918290206040805160c08101825260069093029091018054835260018101546001600160a01b0390811694840194909452600281015484169183019190915260038101546060830152600481015460808301526005015490911660a08201529250610828565b8161082081612de7565b9250506106eb565b60408301516001600160a01b031633146108755760405162461bcd60e51b815260206004820152600e60248201526d131bd8dac81b9bdd08199bdd5b9960921b6044820152606401610259565b42836080015110156108955761088d8888883361177f565b505050610c67565b84836060015110156108db5760405162461bcd60e51b815260206004820152600f60248201526e082dadeeadce840e8dede40d0d2ced608b1b6044820152606401610259565b506001600160a01b038086166000908152600260209081526040808320938a16835292905290812054905b81811015610a3c576001600160a01b038781166000908152600260209081526040808320938c1683529290522080543391908390811061094857610948612dbb565b60009182526020909120600690910201546001600160a01b03161415610a2a5760608401516001600160a01b038089166000908152600260209081526040808320938d168352929052208054839081106109a4576109a4612dbb565b906000526020600020906006020160020160008282546109c49190612e41565b90915550506001600160a01b038088166000908152600260209081526040808320938c1683529290522080546001919083908110610a0457610a04612dbb565b90600052602060002090600602016005016000828254610a249190612e41565b90915550505b80610a3481612de7565b915050610906565b50848360600151610a4d9190612e41565b6001600160a01b038088166000908152600160209081526040808320938c1683529290529081208054909190610a84908490612e02565b909155505060608301516001600160a01b038088166000908152600160208181526040808420948d1684529390529181209091018054909190610ac8908490612e41565b9091555050600354610adc90600190612e41565b821015610ba15760038054610af390600190612e41565b81548110610b0357610b03612dbb565b906000526020600020906006020160038381548110610b2457610b24612dbb565b60009182526020909120825460069092020190815560018083015490820180546001600160a01b03199081166001600160a01b039384161790915560028085015490840180548316918416919091179055600380850154908401556004808501549084015560059384015493909201805490921692169190911790555b6003805480610bb257610bb2612e58565b6000828152602081206006600019909301928302018181556001810180546001600160a01b0319908116909155600282018054821690556003820183905560048201929092556005018054909116905590556040516001600160a01b0387169033907f77aeb72af8b0efaf7fd8c746d2fb78653ae489dd88dea7a851cb354e4cdc4eed90610c47908c908c908b908b90612ec6565b60405180910390a3610c636001600160a01b03881633876126ca565b5050505b610c716001600055565b5050505050565b600354606090600090815b81811015610d91576001600160a01b0387161580610cd2575060038181548110610caf57610caf612dbb565b60009182526020909120600560069092020101546001600160a01b038881169116145b80610d1f57506001600160a01b0385161580610d1f575060038181548110610cfc57610cfc612dbb565b60009182526020909120600260069092020101546001600160a01b038681169116145b80610d6c57506001600160a01b0386161580610d6c575060038181548110610d4957610d49612dbb565b60009182526020909120600160069092020101546001600160a01b038781169116145b15610d7f5782610d7b81612de7565b9350505b80610d8981612de7565b915050610c83565b5060008267ffffffffffffffff811115610dad57610dad612aa5565b604051908082528060200260200182016040528015610e0d57816020015b6040805160c08101825260008082526020808301829052928201819052606082018190526080820181905260a08201528252600019909201910181610dcb5790505b5090506000925060005b82811015610fbe576001600160a01b0388161580610e66575060038181548110610e4357610e43612dbb565b60009182526020909120600560069092020101546001600160a01b038981169116145b80610eb357506001600160a01b0386161580610eb3575060038181548110610e9057610e90612dbb565b60009182526020909120600260069092020101546001600160a01b038781169116145b80610f0057506001600160a01b0387161580610f00575060038181548110610edd57610edd612dbb565b60009182526020909120600160069092020101546001600160a01b038881169116145b15610fac5760038181548110610f1857610f18612dbb565b60009182526020918290206040805160c08101825260069093029091018054835260018101546001600160a01b0390811694840194909452600281015484169183019190915260038101546060830152600481015460808301526005015490911660a08201528251839086908110610f9257610f92612dbb565b60200260200101819052508380610fa890612de7565b9450505b80610fb681612de7565b915050610e17565b509695505050505050565b6001600160a01b038316610fef5760405162461bcd60e51b815260040161025990612e1a565b6001600160a01b0384166110155760405162461bcd60e51b815260040161025990612d94565b600082116110565760405162461bcd60e51b815260206004820152600e60248201526d125b9d985b1a5908185b5bdd5b9d60921b6044820152606401610259565b600085116110965760405162461bcd60e51b815260206004820152600d60248201526c125b9d985b1a59081a9bd89259609a1b6044820152606401610259565b6040805160c08101825260008082526020808301829052828401829052606083018290526080830182905260a083018290526001600160a01b0387811683526001825284832090891683529052918220549091908411156111395760405162461bcd60e51b815260206004820181905260248201527f506179657220646f6573206e6f74206861766520656e6f7567682066756e64736044820152606401610259565b506001600160a01b0380851660009081526002602090815260408083209389168352929052908120545b80821015611271576001600160a01b038087166000908152600260209081526040808320938b168352929052208054839081106111a2576111a2612dbb565b60009182526020909120600690910201546001600160a01b031633141561125f576001600160a01b038087166000908152600260209081526040808320938b168352929052208054839081106111fa576111fa612dbb565b60009182526020918290206040805160c081018252600690930290910180546001600160a01b03168352600181015493830193909352600283015490820152600382015460608201526004820154608082015260059091015460a08201529250611271565b8161126981612de7565b925050611163565b82516001600160a01b031633146112ba5760405162461bcd60e51b815260206004820152600d60248201526c139bc8185d5d1a08199bdd5b99609a1b6044820152606401610259565b82606001518411156113005760405162461bcd60e51b815260206004820152600f60248201526e08af0e0d2e4f240e8dede40d0d2ced608b1b6044820152606401610259565b82602001518511156113465760405162461bcd60e51b815260206004820152600f60248201526e082dadeeadce840e8dede40d0d2ced608b1b6044820152606401610259565b826020015185846040015161135b9190612e02565b11156113a95760405162461bcd60e51b815260206004820152601760248201527f45786365656473206d61784c6f636b6564416d6f756e740000000000000000006044820152606401610259565b82608001518360a00151106113f85760405162461bcd60e51b815260206004820152601560248201527445786365656473206d61784c6f636b436f756e747360581b6044820152606401610259565b5060035460005b8181101561150a57866001600160a01b03166003828154811061142457611424612dbb565b60009182526020909120600160069092020101546001600160a01b03161480156114855750336001600160a01b03166003828154811061146657611466612dbb565b60009182526020909120600260069092020101546001600160a01b0316145b80156114b4575088600382815481106114a0576114a0612dbb565b906000526020600020906006020160000154145b156114f85760405162461bcd60e51b81526020600482015260146024820152734a6f62496420616c72656164792065786973747360601b6044820152606401610259565b8061150281612de7565b9150506113ff565b506001600160a01b038087166000908152600260209081526040808320938b1683529290522080548691908490811061154557611545612dbb565b906000526020600020906006020160020160008282546115659190612e02565b90915550506001600160a01b038087166000908152600260209081526040808320938b16835292905220805460019190849081106115a5576115a5612dbb565b906000526020600020906006020160050160008282546115c59190612e02565b90915550506001600160a01b038087166000908152600160209081526040808320938b1683529290529081208054879290611601908490612e41565b90915550506001600160a01b038087166000908152600160208181526040808420948c1684529390529181209091018054879290611640908490612e02565b9250508190555060036040518060c001604052808a8152602001886001600160a01b03168152602001336001600160a01b03168152602001878152602001864261168a9190612e02565b81526001600160a01b038a8116602092830181905284546001808201875560009687529584902085516006909202019081558484015195810180549684166001600160a01b03199788161790556040808601516002830180549186169189169190911790556060808701516003840155608080880151600485015560a0978801516005909401805494871694909916939093179097558051938d16845233948401949094529282018d9052938101899052908101879052908101919091527fb746b0421b0b98debe76bb312ec9fb701603af22ddb107f7e639b0187e4ff8809060c00160405180910390a15050505050505050565b60035460009081905b808310156118fd5742600384815481106117a4576117a4612dbb565b9060005260206000209060060201600401541080156118d857508615806117ee5750600383815481106117d9576117d9612dbb565b90600052602060002090600602016000015487145b801561183c57506001600160a01b038616158061183c57506003838154811061181957611819612dbb565b60009182526020909120600560069092020101546001600160a01b038781169116145b801561188a57506001600160a01b038516158061188a57506003838154811061186757611867612dbb565b60009182526020909120600160069092020101546001600160a01b038681169116145b80156118d857506001600160a01b03841615806118d85750600383815481106118b5576118b5612dbb565b60009182526020909120600260069092020101546001600160a01b038581169116145b156118eb57816118e781612de7565b9250505b826118f581612de7565b935050611788565b8161190a57505050612128565b60008267ffffffffffffffff81111561192557611925612aa5565b60405190808252806020026020018201604052801561194e578160200160208202803683370190505b50905060008094505b82851015611fc657426003868154811061197357611973612dbb565b906000526020600020906006020160040154108015611aa757508815806119bd5750600385815481106119a8576119a8612dbb565b90600052602060002090600602016000015489145b8015611a0b57506001600160a01b0388161580611a0b5750600385815481106119e8576119e8612dbb565b60009182526020909120600560069092020101546001600160a01b038981169116145b8015611a5957506001600160a01b0387161580611a59575060038581548110611a3657611a36612dbb565b60009182526020909120600160069092020101546001600160a01b038881169116145b8015611aa757506001600160a01b0386161580611aa7575060038581548110611a8457611a84612dbb565b60009182526020909120600260069092020101546001600160a01b038781169116145b15611fb45760006002600060038881548110611ac557611ac5612dbb565b60009182526020808320600160069093020191909101546001600160a01b0316835282019290925260400181206003805491929189908110611b0957611b09612dbb565b60009182526020808320600560069093020191909101546001600160a01b0316835282019290925260400181205491505b81811015611cb45760038781548110611b5557611b55612dbb565b6000918252602080832060026006909302018201546001600160a01b038d8116855292825260408085208f851686529092529220805491909216919083908110611ba157611ba1612dbb565b60009182526020909120600690910201546001600160a01b03161415611ca25760038781548110611bd457611bd4612dbb565b60009182526020808320600360069093020191909101546001600160a01b03808d168452600283526040808520918f16855292529120805483908110611c1c57611c1c612dbb565b90600052602060002090600602016002016000828254611c3c9190612e41565b90915550506001600160a01b03808a166000908152600260209081526040808320938e1683529290522080546001919083908110611c7c57611c7c612dbb565b90600052602060002090600602016005016000828254611c9c9190612e41565b90915550505b80611cac81612de7565b915050611b3a565b5060038681548110611cc857611cc8612dbb565b9060005260206000209060060201600301546001600060038981548110611cf157611cf1612dbb565b60009182526020808320600160069093020191909101546001600160a01b031683528201929092526040018120600380549192918a908110611d3557611d35612dbb565b60009182526020808320600560069093020191909101546001600160a01b0316835282019290925260400181208054909190611d72908490612e02565b90915550506003805487908110611d8b57611d8b612dbb565b9060005260206000209060060201600301546001600060038981548110611db457611db4612dbb565b60009182526020808320600160069093020191909101546001600160a01b031683528201929092526040018120600380549192918a908110611df857611df8612dbb565b60009182526020808320600560069093020191909101546001600160a01b0316835282019290925260400181206001018054909190611e38908490612e41565b90915550506003805487908110611e5157611e51612dbb565b6000918252602090912060016006909202010154600380546001600160a01b039092169188908110611e8557611e85612dbb565b906000526020600020906006020160020160009054906101000a90046001600160a01b03166001600160a01b03167f5bcb66e310a3be233290f5d61fba34fe58a0e8045b4678714af2c7986f3a5e5060038981548110611ee757611ee7612dbb565b90600052602060002090600602016000015460038a81548110611f0c57611f0c612dbb565b906000526020600020906006020160050160009054906101000a90046001600160a01b031660038b81548110611f4457611f44612dbb565b906000526020600020906006020160030154604051611f7f939291909283526001600160a01b03919091166020830152604082015260600190565b60405180910390a385838381518110611f9a57611f9a612dbb565b602090810291909101015281611faf81612de7565b925050505b84611fbe81612de7565b955050611957565b8151600095505b808610156121215760038054611fe590600190612e41565b81548110611ff557611ff5612dbb565b9060005260206000209060060201600384888151811061201757612017612dbb565b60200260200101518154811061202f5761202f612dbb565b60009182526020909120825460069092020190815560018083015490820180546001600160a01b03199081166001600160a01b039384161790915560028085015490840180548316918416919091179055600380850154818501556004808601549085015560059485015494909301805490911693909116929092179091558054806120bd576120bd612e58565b6000828152602081206006600019909301928302018181556001810180546001600160a01b0319908116909155600282018054821690556003820183905560048201929092556005018054909116905590558561211981612de7565b965050611fcd565b5050505050505b50505050565b60606001600160a01b0383166121565760405162461bcd60e51b815260040161025990612e1a565b6001600160a01b03841661217c5760405162461bcd60e51b815260040161025990612d94565b6001600160a01b038084166000908152600260209081526040808320938816835292905290812054815b8181101561223b576001600160a01b038516158061221657506001600160a01b038087166000908152600260209081526040808320938b168352929052208054829081106121f6576121f6612dbb565b60009182526020909120600690910201546001600160a01b038681169116145b15612229578261222581612de7565b9350505b8061223381612de7565b9150506121a6565b5060008267ffffffffffffffff81111561225757612257612aa5565b6040519080825280602002602001820160405280156122ca57816020015b6122b76040518060c0016040528060006001600160a01b0316815260200160008152602001600081526020016000815260200160008152602001600081525090565b8152602001906001900390816122755790505b5090506000925060005b82811015610fbe576001600160a01b038616158061234457506001600160a01b038088166000908152600260209081526040808320938c1683529290522080548290811061232457612324612dbb565b60009182526020909120600690910201546001600160a01b038781169116145b1561240c576001600160a01b038088166000908152600260209081526040808320938c1683529290522080548290811061238057612380612dbb565b60009182526020918290206040805160c081018252600690930290910180546001600160a01b03168352600181015493830193909352600283015490820152600382015460608201526004820154608082015260059091015460a082015282518390869081106123f2576123f2612dbb565b6020026020010181905250838061240890612de7565b9450505b8061241681612de7565b9150506122d4565b612426612529565b3360009081526001602090815260408083206001600160a01b03861684529091529020548111156124995760405162461bcd60e51b815260206004820152601a60248201527f4e6f7420656e6f75676820617661696c61626c652066756e64730000000000006044820152606401610259565b3360009081526001602090815260408083206001600160a01b0386168452909152812080548392906124cc908490612e41565b9091555050604080516001600160a01b03841681526020810183905233917f9b1bfa7fa9ee420a16e124f794c35ac9f90472acc99140eb2f6447c714cad8eb910160405180910390a26106116001600160a01b03831633836126ca565b6002600054141561257c5760405162461bcd60e51b815260206004820152601f60248201527f5265656e7472616e637947756172643a207265656e7472616e742063616c6c006044820152606401610259565b6002600055565b6040516370a0823160e01b81526001600160a01b038381166004830152600091908616906370a0823190602401602060405180830381865afa1580156125cd573d6000803e3d6000fd5b505050506040513d601f19601f820116820180604052508101906125f19190612efd565b90506126086001600160a01b038616858585612732565b612612818361276a565b6040516370a0823160e01b81526001600160a01b0385811660048301528716906370a0823190602401602060405180830381865afa158015612658573d6000803e3d6000fd5b505050506040513d601f19601f8201168201806040525081019061267c9190612efd565b1015610c715760405162461bcd60e51b815260206004820152601a60248201527f5472616e7366657220616d6f756e7420697320746f6f206c6f770000000000006044820152606401610259565b6040516001600160a01b03831660248201526044810182905261272d90849063a9059cbb60e01b906064015b60408051601f198184030181529190526020810180516001600160e01b03166001600160e01b03199093169290921790915261277d565b505050565b6040516001600160a01b03808516602483015283166044820152606481018290526121289085906323b872dd60e01b906084016126f6565b60006127768284612e02565b9392505050565b60006127d2826040518060400160405280602081526020017f5361666545524332303a206c6f772d6c6576656c2063616c6c206661696c6564815250856001600160a01b03166128529092919063ffffffff16565b90508051600014806127f35750808060200190518101906127f39190612f16565b61272d5760405162461bcd60e51b815260206004820152602a60248201527f5361666545524332303a204552433230206f7065726174696f6e20646964206e6044820152691bdd081cdd58d8d9595960b21b6064820152608401610259565b60606128618484600085612869565b949350505050565b6060824710156128ca5760405162461bcd60e51b815260206004820152602660248201527f416464726573733a20696e73756666696369656e742062616c616e636520666f6044820152651c8818d85b1b60d21b6064820152608401610259565b600080866001600160a01b031685876040516128e69190612f38565b60006040518083038185875af1925050503d8060008114612923576040519150601f19603f3d011682016040523d82523d6000602084013e612928565b606091505b509150915061293987838387612944565b979650505050505050565b606083156129b05782516129a9576001600160a01b0385163b6129a95760405162461bcd60e51b815260206004820152601d60248201527f416464726573733a2063616c6c20746f206e6f6e2d636f6e74726163740000006044820152606401610259565b5081612861565b61286183838151156129c55781518083602001fd5b8060405162461bcd60e51b81526004016102599190612f54565b80356001600160a01b03811681146129f657600080fd5b919050565b600080600080600060a08688031215612a1357600080fd5b612a1c866129df565b9450612a2a602087016129df565b94979496505050506040830135926060810135926080909101359150565b60008060408385031215612a5b57600080fd5b612a64836129df565b9150612a72602084016129df565b90509250929050565b60008060408385031215612a8e57600080fd5b612a97836129df565b946020939093013593505050565b634e487b7160e01b600052604160045260246000fd5b600080600080600060a08688031215612ad357600080fd5b85359450612ae3602087016129df565b9350612af1604087016129df565b925060608601359150608086013567ffffffffffffffff80821115612b1557600080fd5b818801915088601f830112612b2957600080fd5b813581811115612b3b57612b3b612aa5565b604051601f8201601f19908116603f01168101908382118183101715612b6357612b63612aa5565b816040528281528b6020848701011115612b7c57600080fd5b8260208601602083013760006020848301015280955050505050509295509295909350565b600080600060608486031215612bb657600080fd5b612bbf846129df565b9250612bcd602085016129df565b9150612bdb604085016129df565b90509250925092565b602080825282518282018190526000919060409081850190868401855b82811015612c5d57815180518552868101516001600160a01b039081168887015286820151811687870152606080830151908701526080808301519087015260a091820151169085015260c09093019290850190600101612c01565b5091979650505050505050565b600080600080600060a08688031215612c8257600080fd5b85359450612c92602087016129df565b9350612ca0604087016129df565b94979396509394606081013594506080013592915050565b60008060008060808587031215612cce57600080fd5b84359350612cde602086016129df565b9250612cec604086016129df565b9150612cfa606086016129df565b905092959194509250565b602080825282518282018190526000919060409081850190868401855b82811015612c5d57815180516001600160a01b0316855286810151878601528581015186860152606080820151908601526080808201519086015260a0908101519085015260c09093019290850190600101612d22565b600060208284031215612d8b57600080fd5b612776826129df565b6020808252600d908201526c24b73b30b634b2103a37b5b2b760991b604082015260600190565b634e487b7160e01b600052603260045260246000fd5b634e487b7160e01b600052601160045260246000fd5b6000600019821415612dfb57612dfb612dd1565b5060010190565b60008219821115612e1557612e15612dd1565b500190565b6020808252600d908201526c24b73b30b634b2103830bcb2b960991b604082015260600190565b600082821015612e5357612e53612dd1565b500390565b634e487b7160e01b600052603160045260246000fd5b60005b83811015612e89578181015183820152602001612e71565b838111156121285750506000910152565b60008151808452612eb2816020860160208601612e6e565b601f01601f19169290920160200192915050565b84815260018060a01b0384166020820152826040820152608060608201526000612ef36080830184612e9a565b9695505050505050565b600060208284031215612f0f57600080fd5b5051919050565b600060208284031215612f2857600080fd5b8151801515811461277657600080fd5b60008251612f4a818460208701612e6e565b9190910192915050565b6020815260006127766020830184612e9a56fea264697066735822122002fc148d4ffccd1b2c63c6832b2eb86286437a04df16f8d7bd13294ea40afee664736f6c634300080c0033",
  "linkReferences": {},
  "deployedLinkReferences": {}
}