{
  "_format": "hh-sol-artifact-1",
  "contractName": "Marionette",
  "sourceName": "contracts/Marionette.sol",
  "abi": [
    {
      "inputs": [
        {
          "internalType": "address",
          "name": "unauthorizedSender",
          "type": "address"
        }
      ],
      "name": "Unauthorized",
      "type": "error"
    },
    {
      "anonymous": false,
      "inputs": [
        {
          "indexed": false,
          "internalType": "address",
          "name": "sender",
          "type": "address"
        },
        {
          "indexed": false,
          "internalType": "uint256",
          "name": "amount",
          "type": "uint256"
        }
      ],
      "name": "EtherReceived",
      "type": "event"
    },
    {
      "anonymous": false,
      "inputs": [
        {
          "indexed": false,
          "internalType": "address",
          "name": "receiver",
          "type": "address"
        },
        {
          "indexed": false,
          "internalType": "uint256",
          "name": "amount",
          "type": "uint256"
        }
      ],
      "name": "EtherSent",
      "type": "event"
    },
    {
      "anonymous": false,
      "inputs": [
        {
          "indexed": false,
          "internalType": "bytes",
          "name": "output",
          "type": "bytes"
        }
      ],
      "name": "FunctionCallResult",
      "type": "event"
    },
    {
      "anonymous": false,
      "inputs": [
        {
          "indexed": false,
          "internalType": "uint8",
          "name": "version",
          "type": "uint8"
        }
      ],
      "name": "Initialized",
      "type": "event"
    },
    {
      "anonymous": false,
      "inputs": [
        {
          "indexed": true,
          "internalType": "bytes32",
          "name": "role",
          "type": "bytes32"
        },
        {
          "indexed": true,
          "internalType": "bytes32",
          "name": "previousAdminRole",
          "type": "bytes32"
        },
        {
          "indexed": true,
          "internalType": "bytes32",
          "name": "newAdminRole",
          "type": "bytes32"
        }
      ],
      "name": "RoleAdminChanged",
      "type": "event"
    },
    {
      "anonymous": false,
      "inputs": [
        {
          "indexed": true,
          "internalType": "bytes32",
          "name": "role",
          "type": "bytes32"
        },
        {
          "indexed": true,
          "internalType": "address",
          "name": "account",
          "type": "address"
        },
        {
          "indexed": true,
          "internalType": "address",
          "name": "sender",
          "type": "address"
        }
      ],
      "name": "RoleGranted",
      "type": "event"
    },
    {
      "anonymous": false,
      "inputs": [
        {
          "indexed": true,
          "internalType": "bytes32",
          "name": "role",
          "type": "bytes32"
        },
        {
          "indexed": true,
          "internalType": "address",
          "name": "account",
          "type": "address"
        },
        {
          "indexed": true,
          "internalType": "address",
          "name": "sender",
          "type": "address"
        }
      ],
      "name": "RoleRevoked",
      "type": "event"
    },
    {
      "anonymous": false,
      "inputs": [
        {
          "indexed": false,
          "internalType": "string",
          "name": "oldVersion",
          "type": "string"
        },
        {
          "indexed": false,
          "internalType": "string",
          "name": "newVersion",
          "type": "string"
        }
      ],
      "name": "VersionUpdated",
      "type": "event"
    },
    {
      "inputs": [],
      "name": "ACCESS_VIOLATION",
      "outputs": [
        {
          "internalType": "string",
          "name": "",
          "type": "string"
        }
      ],
      "stateMutability": "view",
      "type": "function"
    },
    {
      "inputs": [],
      "name": "DEFAULT_ADMIN_ROLE",
      "outputs": [
        {
          "internalType": "bytes32",
          "name": "",
          "type": "bytes32"
        }
      ],
      "stateMutability": "view",
      "type": "function"
    },
    {
      "inputs": [],
      "name": "IMA_ROLE",
      "outputs": [
        {
          "internalType": "bytes32",
          "name": "",
          "type": "bytes32"
        }
      ],
      "stateMutability": "view",
      "type": "function"
    },
    {
      "inputs": [],
      "name": "PUPPETEER_ROLE",
      "outputs": [
        {
          "internalType": "bytes32",
          "name": "",
          "type": "bytes32"
        }
      ],
      "stateMutability": "view",
      "type": "function"
    },
    {
      "inputs": [
        {
          "internalType": "address",
          "name": "receiver",
          "type": "address"
        },
        {
          "internalType": "uint256",
          "name": "value",
          "type": "uint256"
        },
        {
          "internalType": "bytes",
          "name": "data",
          "type": "bytes"
        }
      ],
      "name": "encodeFunctionCall",
      "outputs": [
        {
          "internalType": "bytes",
          "name": "",
          "type": "bytes"
        }
      ],
      "stateMutability": "pure",
      "type": "function"
    },
    {
      "inputs": [
        {
          "internalType": "address payable",
          "name": "target",
          "type": "address"
        },
        {
          "internalType": "uint256",
          "name": "value",
          "type": "uint256"
        },
        {
          "internalType": "bytes",
          "name": "data",
          "type": "bytes"
        }
      ],
      "name": "execute",
      "outputs": [
        {
          "internalType": "bytes",
          "name": "",
          "type": "bytes"
        }
      ],
      "stateMutability": "payable",
      "type": "function"
    },
    {
      "inputs": [
        {
          "internalType": "bytes32",
          "name": "role",
          "type": "bytes32"
        }
      ],
      "name": "getRoleAdmin",
      "outputs": [
        {
          "internalType": "bytes32",
          "name": "",
          "type": "bytes32"
        }
      ],
      "stateMutability": "view",
      "type": "function"
    },
    {
      "inputs": [
        {
          "internalType": "bytes32",
          "name": "role",
          "type": "bytes32"
        },
        {
          "internalType": "uint256",
          "name": "index",
          "type": "uint256"
        }
      ],
      "name": "getRoleMember",
      "outputs": [
        {
          "internalType": "address",
          "name": "",
          "type": "address"
        }
      ],
      "stateMutability": "view",
      "type": "function"
    },
    {
      "inputs": [
        {
          "internalType": "bytes32",
          "name": "role",
          "type": "bytes32"
        }
      ],
      "name": "getRoleMemberCount",
      "outputs": [
        {
          "internalType": "uint256",
          "name": "",
          "type": "uint256"
        }
      ],
      "stateMutability": "view",
      "type": "function"
    },
    {
      "inputs": [
        {
          "internalType": "bytes32",
          "name": "role",
          "type": "bytes32"
        },
        {
          "internalType": "address",
          "name": "account",
          "type": "address"
        }
      ],
      "name": "grantRole",
      "outputs": [],
      "stateMutability": "nonpayable",
      "type": "function"
    },
    {
      "inputs": [
        {
          "internalType": "bytes32",
          "name": "role",
          "type": "bytes32"
        },
        {
          "internalType": "address",
          "name": "account",
          "type": "address"
        }
      ],
      "name": "hasRole",
      "outputs": [
        {
          "internalType": "bool",
          "name": "",
          "type": "bool"
        }
      ],
      "stateMutability": "view",
      "type": "function"
    },
    {
      "inputs": [
        {
          "internalType": "address",
          "name": "owner",
          "type": "address"
        },
        {
          "internalType": "address",
          "name": "ima",
          "type": "address"
        }
      ],
      "name": "initialize",
      "outputs": [],
      "stateMutability": "nonpayable",
      "type": "function"
    },
    {
      "inputs": [
        {
          "internalType": "bytes32",
          "name": "",
          "type": "bytes32"
        },
        {
          "internalType": "address",
          "name": "sender",
          "type": "address"
        },
        {
          "internalType": "bytes",
          "name": "data",
          "type": "bytes"
        }
      ],
      "name": "postMessage",
      "outputs": [],
      "stateMutability": "nonpayable",
      "type": "function"
    },
    {
      "inputs": [
        {
          "internalType": "bytes32",
          "name": "role",
          "type": "bytes32"
        },
        {
          "internalType": "address",
          "name": "account",
          "type": "address"
        }
      ],
      "name": "renounceRole",
      "outputs": [],
      "stateMutability": "nonpayable",
      "type": "function"
    },
    {
      "inputs": [
        {
          "internalType": "bytes32",
          "name": "role",
          "type": "bytes32"
        },
        {
          "internalType": "address",
          "name": "account",
          "type": "address"
        }
      ],
      "name": "revokeRole",
      "outputs": [],
      "stateMutability": "nonpayable",
      "type": "function"
    },
    {
      "inputs": [
        {
          "internalType": "address payable",
          "name": "target",
          "type": "address"
        },
        {
          "internalType": "uint256",
          "name": "value",
          "type": "uint256"
        }
      ],
      "name": "sendSFuel",
      "outputs": [],
      "stateMutability": "payable",
      "type": "function"
    },
    {
      "inputs": [
        {
          "internalType": "string",
          "name": "newVersion",
          "type": "string"
        }
      ],
      "name": "setVersion",
      "outputs": [],
      "stateMutability": "nonpayable",
      "type": "function"
    },
    {
      "inputs": [
        {
          "internalType": "bytes4",
          "name": "interfaceId",
          "type": "bytes4"
        }
      ],
      "name": "supportsInterface",
      "outputs": [
        {
          "internalType": "bool",
          "name": "",
          "type": "bool"
        }
      ],
      "stateMutability": "view",
      "type": "function"
    },
    {
      "inputs": [],
      "name": "version",
      "outputs": [
        {
          "internalType": "string",
          "name": "",
          "type": "string"
        }
      ],
      "stateMutability": "view",
      "type": "function"
    },
    {
      "stateMutability": "payable",
      "type": "receive"
    }
  ],
  "bytecode": "0x608060405234801561001057600080fd5b50611b80806100206000396000f3fe6080604052600436106101185760003560e01c8063884cee5a116100a0578063b3c9af0611610064578063b3c9af061461037e578063b61d27f614610391578063ca15c873146103a4578063d547741f146103c4578063f81299b9146103e457600080fd5b8063884cee5a146102b55780639010d07c146102d557806391d148541461030d5780639bba6b781461032d578063a217fddf1461036957600080fd5b806334216d62116100e757806334216d621461021e57806336568abe14610240578063485cc9551461026057806354fd4d5014610280578063788bc78c1461029557600080fd5b806301ffc9a71461015c5780631e69959114610191578063248a9ca3146101be5780632f2ff15d146101fc57600080fd5b3661015757604080513381523460208201527f1e57e3bb474320be3d2c77138f75b7c3941292d647f5f9634e33a8e94e0e069b910160405180910390a1005b600080fd5b34801561016857600080fd5b5061017c6101773660046114ff565b610418565b60405190151581526020015b60405180910390f35b34801561019d57600080fd5b506101b16101ac366004611587565b610443565b604051610188919061163f565b3480156101ca57600080fd5b506101ee6101d9366004611652565b60009081526065602052604090206001015490565b604051908152602001610188565b34801561020857600080fd5b5061021c61021736600461166b565b610491565b005b34801561022a57600080fd5b506101ee600080516020611b2b83398151915281565b34801561024c57600080fd5b5061021c61025b36600461166b565b6104bb565b34801561026c57600080fd5b5061021c61027b36600461169b565b61053e565b34801561028c57600080fd5b506101b16106ac565b3480156102a157600080fd5b5061021c6102b03660046116c9565b61073a565b3480156102c157600080fd5b5061021c6102d036600461170b565b6107ac565b3480156102e157600080fd5b506102f56102f036600461174f565b6108de565b6040516001600160a01b039091168152602001610188565b34801561031957600080fd5b5061017c61032836600461166b565b6108fd565b34801561033957600080fd5b506101b16040518060400160405280601081526020016f20b1b1b2b9b9903b34b7b630ba34b7b760811b81525081565b34801561037557600080fd5b506101ee600081565b61021c61038c366004611771565b610928565b6101b161039f366004611587565b6109ad565b3480156103b057600080fd5b506101ee6103bf366004611652565b610a50565b3480156103d057600080fd5b5061021c6103df36600461166b565b610a67565b3480156103f057600080fd5b506101ee7f18f7915ceb1a15dd0c3170ef6d30ba89e0bcb07f4fb55858579385663709107e81565b60006001600160e01b03198216635a05180f60e01b148061043d575061043d82610a8c565b92915050565b6060610486858585858080601f016020809104026020016040519081016040528093929190818152602001838380828437600092019190915250610ac192505050565b90505b949350505050565b6000828152606560205260409020600101546104ac81610af0565b6104b68383610afd565b505050565b6001600160a01b03811633146105305760405162461bcd60e51b815260206004820152602f60248201527f416363657373436f6e74726f6c3a2063616e206f6e6c792072656e6f756e636560448201526e103937b632b9903337b91039b2b63360891b60648201526084015b60405180910390fd5b61053a8282610b1f565b5050565b600054610100900460ff161580801561055e5750600054600160ff909116105b806105785750303b158015610578575060005460ff166001145b6105db5760405162461bcd60e51b815260206004820152602e60248201527f496e697469616c697a61626c653a20636f6e747261637420697320616c72656160448201526d191e481a5b9a5d1a585b1a5e995960921b6064820152608401610527565b6000805460ff1916600117905580156105fe576000805461ff0019166101001790555b610606610b41565b610611600030610bae565b610629600080516020611b2b83398151915284610bae565b6001600160a01b03821615610662576106627f18f7915ceb1a15dd0c3170ef6d30ba89e0bcb07f4fb55858579385663709107e83610bae565b80156104b6576000805461ff0019169055604051600181527f7f26b83ff96e1f2b6a682f133852f6798a09c465da95921460cefb38474024989060200160405180910390a1505050565b60c980546106b99061179d565b80601f01602080910402602001604051908101604052809291908181526020018280546106e59061179d565b80156107325780601f1061070757610100808354040283529160200191610732565b820191906000526020600020905b81548152906001019060200180831161071557829003601f168201915b505050505081565b6107456000336108fd565b6107645760405163472511eb60e11b8152336004820152602401610527565b7f22efc5f993dce37856b77dd72d7d7661032380c9728c4133f3c071c591bc6ca760c9838360405161079893929190611801565b60405180910390a16104b660c98383611466565b6107d67f18f7915ceb1a15dd0c3170ef6d30ba89e0bcb07f4fb55858579385663709107e336108fd565b6108165760405162461bcd60e51b815260206004820152601160248201527053656e646572206973206e6f7420494d4160781b6044820152606401610527565b61082e600080516020611b2b833981519152846108fd565b6040518060400160405280601081526020016f20b1b1b2b9b9903b34b7b630ba34b7b760811b815250906108755760405162461bcd60e51b8152600401610527919061163f565b5060006108828383610bb8565b9050600061089d826000015183602001518460400151610bde565b90507f96dfc08ca2be84df03b6ba50ac467a2e3cfa446eebcc623851fbee1ba0301784816040516108ce919061163f565b60405180910390a1505050505050565b60008281526097602052604081206108f69083610cce565b9392505050565b60009182526065602090815260408084206001600160a01b0393909316845291905290205460ff1690565b610940600080516020611b2b833981519152336108fd565b6040518060400160405280601081526020016f20b1b1b2b9b9903b34b7b630ba34b7b760811b815250906109875760405162461bcd60e51b8152600401610527919061163f565b506104b6828260405180604001604052806002815260200161060f60f31b815250610bde565b60606109c7600080516020611b2b833981519152336108fd565b6040518060400160405280601081526020016f20b1b1b2b9b9903b34b7b630ba34b7b760811b81525090610a0e5760405162461bcd60e51b8152600401610527919061163f565b50610486858585858080601f016020809104026020016040519081016040528093929190818152602001838380828437600092019190915250610bde92505050565b600081815260976020526040812061043d90610cda565b600082815260656020526040902060010154610a8281610af0565b6104b68383610b1f565b60006001600160e01b03198216637965db0b60e01b148061043d57506301ffc9a760e01b6001600160e01b031983161461043d565b6060838383604051602001610ad8939291906118bf565b60405160208183030381529060405290509392505050565b610afa8133610ce4565b50565b610b078282610d3d565b60008281526097602052604090206104b69082610dc3565b610b298282610dd8565b60008281526097602052604090206104b69082610e3f565b600054610100900460ff16610bac5760405162461bcd60e51b815260206004820152602b60248201527f496e697469616c697a61626c653a20636f6e7472616374206973206e6f74206960448201526a6e697469616c697a696e6760a81b6064820152608401610527565b565b61053a8282610afd565b604080516060808201835260008083526020830152918101919091526108f68383610e54565b60603415610c1f57604080513381523460208201527f1e57e3bb474320be3d2c77138f75b7c3941292d647f5f9634e33a8e94e0e069b910160405180910390a15b8215610c6857604080516001600160a01b0386168152602081018590527f6109e2559dfa766aaec7118351d48a523f0a4157f49c8d68749c8ac41318ad12910160405180910390a15b6001600160a01b0384163b15610c9c576004825110610c9c57610c956001600160a01b0385168385610e97565b90506108f6565b610caf6001600160a01b03851684610ebd565b50604080518082019091526002815261060f60f31b60208201526108f6565b60006108f68383610fd6565b600061043d825490565b610cee82826108fd565b61053a57610cfb81611000565b610d06836020611012565b604051602001610d179291906118e6565b60408051601f198184030181529082905262461bcd60e51b82526105279160040161163f565b610d4782826108fd565b61053a5760008281526065602090815260408083206001600160a01b03851684529091529020805460ff19166001179055610d7f3390565b6001600160a01b0316816001600160a01b0316837f2f8788117e7eff1d82e926ec794901d17c78024a50270940304540a733656f0d60405160405180910390a45050565b60006108f6836001600160a01b0384166111ae565b610de282826108fd565b1561053a5760008281526065602090815260408083206001600160a01b0385168085529252808320805460ff1916905551339285917ff6391f5c32d9c69d2a47ea670b442974b53935d1edc7fd64eb21e047a839171b9190a45050565b60006108f6836001600160a01b0384166111fd565b60408051606080820183526000808352602083015291810191909152610e7c82840184611971565b604084015260208301526001600160a01b0316815292915050565b6060610489848484604051806060016040528060298152602001611b02602991396112f0565b80471015610f0d5760405162461bcd60e51b815260206004820152601d60248201527f416464726573733a20696e73756666696369656e742062616c616e63650000006044820152606401610527565b6000826001600160a01b03168260405160006040518083038185875af1925050503d8060008114610f5a576040519150601f19603f3d011682016040523d82523d6000602084013e610f5f565b606091505b50509050806104b65760405162461bcd60e51b815260206004820152603a60248201527f416464726573733a20756e61626c6520746f2073656e642076616c75652c207260448201527f6563697069656e74206d617920686176652072657665727465640000000000006064820152608401610527565b6000826000018281548110610fed57610fed611a3e565b9060005260206000200154905092915050565b606061043d6001600160a01b03831660145b60606000611021836002611a6a565b61102c906002611a89565b67ffffffffffffffff8111156110445761104461195b565b6040519080825280601f01601f19166020018201604052801561106e576020820181803683370190505b509050600360fc1b8160008151811061108957611089611a3e565b60200101906001600160f81b031916908160001a905350600f60fb1b816001815181106110b8576110b8611a3e565b60200101906001600160f81b031916908160001a90535060006110dc846002611a6a565b6110e7906001611a89565b90505b600181111561115f576f181899199a1a9b1b9c1cb0b131b232b360811b85600f166010811061111b5761111b611a3e565b1a60f81b82828151811061113157611131611a3e565b60200101906001600160f81b031916908160001a90535060049490941c9361115881611aa1565b90506110ea565b5083156108f65760405162461bcd60e51b815260206004820181905260248201527f537472696e67733a20686578206c656e67746820696e73756666696369656e746044820152606401610527565b60008181526001830160205260408120546111f55750815460018181018455600084815260208082209093018490558454848252828601909352604090209190915561043d565b50600061043d565b600081815260018301602052604081205480156112e6576000611221600183611ab8565b855490915060009061123590600190611ab8565b905081811461129a57600086600001828154811061125557611255611a3e565b906000526020600020015490508087600001848154811061127857611278611a3e565b6000918252602080832090910192909255918252600188019052604090208390555b85548690806112ab576112ab611acf565b60019003818190600052602060002001600090559055856001016000868152602001908152602001600020600090556001935050505061043d565b600091505061043d565b6060824710156113515760405162461bcd60e51b815260206004820152602660248201527f416464726573733a20696e73756666696369656e742062616c616e636520666f6044820152651c8818d85b1b60d21b6064820152608401610527565b600080866001600160a01b0316858760405161136d9190611ae5565b60006040518083038185875af1925050503d80600081146113aa576040519150601f19603f3d011682016040523d82523d6000602084013e6113af565b606091505b50915091506113c0878383876113cb565b979650505050505050565b60608315611437578251611430576001600160a01b0385163b6114305760405162461bcd60e51b815260206004820152601d60248201527f416464726573733a2063616c6c20746f206e6f6e2d636f6e74726163740000006044820152606401610527565b5081610489565b610489838381511561144c5781518083602001fd5b8060405162461bcd60e51b8152600401610527919061163f565b8280546114729061179d565b90600052602060002090601f01602090048101928261149457600085556114da565b82601f106114ad5782800160ff198235161785556114da565b828001600101855582156114da579182015b828111156114da5782358255916020019190600101906114bf565b506114e69291506114ea565b5090565b5b808211156114e657600081556001016114eb565b60006020828403121561151157600080fd5b81356001600160e01b0319811681146108f657600080fd5b6001600160a01b0381168114610afa57600080fd5b60008083601f84011261155057600080fd5b50813567ffffffffffffffff81111561156857600080fd5b60208301915083602082850101111561158057600080fd5b9250929050565b6000806000806060858703121561159d57600080fd5b84356115a881611529565b935060208501359250604085013567ffffffffffffffff8111156115cb57600080fd5b6115d78782880161153e565b95989497509550505050565b60005b838110156115fe5781810151838201526020016115e6565b8381111561160d576000848401525b50505050565b6000815180845261162b8160208601602086016115e3565b601f01601f19169290920160200192915050565b6020815260006108f66020830184611613565b60006020828403121561166457600080fd5b5035919050565b6000806040838503121561167e57600080fd5b82359150602083013561169081611529565b809150509250929050565b600080604083850312156116ae57600080fd5b82356116b981611529565b9150602083013561169081611529565b600080602083850312156116dc57600080fd5b823567ffffffffffffffff8111156116f357600080fd5b6116ff8582860161153e565b90969095509350505050565b6000806000806060858703121561172157600080fd5b84359350602085013561173381611529565b9250604085013567ffffffffffffffff8111156115cb57600080fd5b6000806040838503121561176257600080fd5b50508035926020909101359150565b6000806040838503121561178457600080fd5b823561178f81611529565b946020939093013593505050565b600181811c908216806117b157607f821691505b602082108114156117d257634e487b7160e01b600052602260045260246000fd5b50919050565b81835281816020850137506000828201602090810191909152601f909101601f19169091010190565b60408152600080855481600182811c91508083168061182157607f831692505b602080841082141561184157634e487b7160e01b86526022600452602486fd5b604088018490526060880182801561186057600181146118715761189c565b60ff1987168252828201975061189c565b60008d81526020902060005b878110156118965781548482015290860190840161187d565b83019850505b50508786038189015250505050506118b58185876117d8565b9695505050505050565b60018060a01b03841681528260208201526060604082015260006104866060830184611613565b7f416363657373436f6e74726f6c3a206163636f756e742000000000000000000081526000835161191e8160178501602088016115e3565b7001034b99036b4b9b9b4b733903937b6329607d1b601791840191820152835161194f8160288401602088016115e3565b01602801949350505050565b634e487b7160e01b600052604160045260246000fd5b60008060006060848603121561198657600080fd5b833561199181611529565b925060208401359150604084013567ffffffffffffffff808211156119b557600080fd5b818601915086601f8301126119c957600080fd5b8135818111156119db576119db61195b565b604051601f8201601f19908116603f01168101908382118183101715611a0357611a0361195b565b81604052828152896020848701011115611a1c57600080fd5b8260208601602083013760006020848301015280955050505050509250925092565b634e487b7160e01b600052603260045260246000fd5b634e487b7160e01b600052601160045260246000fd5b6000816000190483118215151615611a8457611a84611a54565b500290565b60008219821115611a9c57611a9c611a54565b500190565b600081611ab057611ab0611a54565b506000190190565b600082821015611aca57611aca611a54565b500390565b634e487b7160e01b600052603160045260246000fd5b60008251611af78184602087016115e3565b919091019291505056fe416464726573733a206c6f772d6c6576656c2063616c6c20776974682076616c7565206661696c6564dbe8b307f60c9ed0e3764e9100b17f1d4c5fd58ba7889d208d166f481302d4cfa26469706673582212205ced63f34c290a8aa623a0ce1a9994b505ddf40d9e8842afdfbb4ce41784437964736f6c634300080b0033",
  "linkReferences": {},
  "deployedLinkReferences": {}
}